{
  "_format": "hh-sol-artifact-1",
  "contractName": "WhoopsieDerpies",
  "sourceName": "contracts/WhoopsieDerpies.sol",
  "abi": [
    {
      "inputs": [],
      "stateMutability": "nonpayable",
      "type": "constructor"
    },
    {
      "anonymous": false,
      "inputs": [
        {
          "indexed": true,
          "internalType": "address",
          "name": "account",
          "type": "address"
        },
        {
          "indexed": true,
          "internalType": "address",
          "name": "operator",
          "type": "address"
        },
        {
          "indexed": false,
          "internalType": "bool",
          "name": "approved",
          "type": "bool"
        }
      ],
      "name": "ApprovalForAll",
      "type": "event"
    },
    {
      "anonymous": false,
      "inputs": [
        {
          "indexed": true,
          "internalType": "address",
          "name": "previousOwner",
          "type": "address"
        },
        {
          "indexed": true,
          "internalType": "address",
          "name": "newOwner",
          "type": "address"
        }
      ],
      "name": "OwnershipTransferred",
      "type": "event"
    },
    {
      "anonymous": false,
      "inputs": [
        {
          "indexed": true,
          "internalType": "address",
          "name": "operator",
          "type": "address"
        },
        {
          "indexed": true,
          "internalType": "address",
          "name": "from",
          "type": "address"
        },
        {
          "indexed": true,
          "internalType": "address",
          "name": "to",
          "type": "address"
        },
        {
          "indexed": false,
          "internalType": "uint256[]",
          "name": "ids",
          "type": "uint256[]"
        },
        {
          "indexed": false,
          "internalType": "uint256[]",
          "name": "values",
          "type": "uint256[]"
        }
      ],
      "name": "TransferBatch",
      "type": "event"
    },
    {
      "anonymous": false,
      "inputs": [
        {
          "indexed": true,
          "internalType": "address",
          "name": "operator",
          "type": "address"
        },
        {
          "indexed": true,
          "internalType": "address",
          "name": "from",
          "type": "address"
        },
        {
          "indexed": true,
          "internalType": "address",
          "name": "to",
          "type": "address"
        },
        {
          "indexed": false,
          "internalType": "uint256",
          "name": "id",
          "type": "uint256"
        },
        {
          "indexed": false,
          "internalType": "uint256",
          "name": "value",
          "type": "uint256"
        }
      ],
      "name": "TransferSingle",
      "type": "event"
    },
    {
      "anonymous": false,
      "inputs": [
        {
          "indexed": false,
          "internalType": "string",
          "name": "value",
          "type": "string"
        },
        {
          "indexed": true,
          "internalType": "uint256",
          "name": "id",
          "type": "uint256"
        }
      ],
      "name": "URI",
      "type": "event"
    },
    {
      "inputs": [],
      "name": "DERPIE_PRICE",
      "outputs": [
        {
          "internalType": "uint256",
          "name": "",
          "type": "uint256"
        }
      ],
      "stateMutability": "view",
      "type": "function"
    },
    {
      "inputs": [],
      "name": "MAX_TOKEN_ID_PLUS_ONE",
      "outputs": [
        {
          "internalType": "uint256",
          "name": "",
          "type": "uint256"
        }
      ],
      "stateMutability": "view",
      "type": "function"
    },
    {
      "inputs": [
        {
          "internalType": "address",
          "name": "account",
          "type": "address"
        },
        {
          "internalType": "uint256",
          "name": "id",
          "type": "uint256"
        }
      ],
      "name": "balanceOf",
      "outputs": [
        {
          "internalType": "uint256",
          "name": "",
          "type": "uint256"
        }
      ],
      "stateMutability": "view",
      "type": "function"
    },
    {
      "inputs": [
        {
          "internalType": "address[]",
          "name": "accounts",
          "type": "address[]"
        },
        {
          "internalType": "uint256[]",
          "name": "ids",
          "type": "uint256[]"
        }
      ],
      "name": "balanceOfBatch",
      "outputs": [
        {
          "internalType": "uint256[]",
          "name": "",
          "type": "uint256[]"
        }
      ],
      "stateMutability": "view",
      "type": "function"
    },
    {
      "inputs": [],
      "name": "contractURI",
      "outputs": [
        {
          "internalType": "string",
          "name": "",
          "type": "string"
        }
      ],
      "stateMutability": "view",
      "type": "function"
    },
    {
      "inputs": [],
      "name": "contractUri",
      "outputs": [
        {
          "internalType": "string",
          "name": "",
          "type": "string"
        }
      ],
      "stateMutability": "view",
      "type": "function"
    },
    {
      "inputs": [
        {
          "internalType": "address",
          "name": "account",
          "type": "address"
        },
        {
          "internalType": "address",
          "name": "operator",
          "type": "address"
        }
      ],
      "name": "isApprovedForAll",
      "outputs": [
        {
          "internalType": "bool",
          "name": "",
          "type": "bool"
        }
      ],
      "stateMutability": "view",
      "type": "function"
    },
    {
      "inputs": [
        {
          "internalType": "uint256",
          "name": "_id",
          "type": "uint256"
        },
        {
          "internalType": "uint256",
          "name": "_amount",
          "type": "uint256"
        }
      ],
      "name": "mint",
      "outputs": [],
      "stateMutability": "payable",
      "type": "function"
    },
    {
      "inputs": [
        {
          "internalType": "uint256[]",
          "name": "_ids",
          "type": "uint256[]"
        },
        {
          "internalType": "uint256[]",
          "name": "_amounts",
          "type": "uint256[]"
        }
      ],
      "name": "mintBatch",
      "outputs": [],
      "stateMutability": "payable",
      "type": "function"
    },
    {
      "inputs": [],
      "name": "owner",
      "outputs": [
        {
          "internalType": "address",
          "name": "",
          "type": "address"
        }
      ],
      "stateMutability": "view",
      "type": "function"
    },
    {
      "inputs": [
        {
          "internalType": "address",
          "name": "_to",
          "type": "address"
        },
        {
          "internalType": "uint256",
          "name": "_id",
          "type": "uint256"
        },
        {
          "internalType": "uint256",
          "name": "_amount",
          "type": "uint256"
        }
      ],
      "name": "ownerMint",
      "outputs": [],
      "stateMutability": "nonpayable",
      "type": "function"
    },
    {
      "inputs": [
        {
          "internalType": "uint256[]",
          "name": "_ids",
          "type": "uint256[]"
        },
        {
          "internalType": "uint256[]",
          "name": "_amounts",
          "type": "uint256[]"
        }
      ],
      "name": "ownerMintBatch",
      "outputs": [],
      "stateMutability": "nonpayable",
      "type": "function"
    },
    {
      "inputs": [],
      "name": "renounceOwnership",
      "outputs": [],
      "stateMutability": "nonpayable",
      "type": "function"
    },
    {
      "inputs": [
        {
          "internalType": "address",
          "name": "from",
          "type": "address"
        },
        {
          "internalType": "address",
          "name": "to",
          "type": "address"
        },
        {
          "internalType": "uint256[]",
          "name": "ids",
          "type": "uint256[]"
        },
        {
          "internalType": "uint256[]",
          "name": "amounts",
          "type": "uint256[]"
        },
        {
          "internalType": "bytes",
          "name": "data",
          "type": "bytes"
        }
      ],
      "name": "safeBatchTransferFrom",
      "outputs": [],
      "stateMutability": "nonpayable",
      "type": "function"
    },
    {
      "inputs": [
        {
          "internalType": "address",
          "name": "from",
          "type": "address"
        },
        {
          "internalType": "address",
          "name": "to",
          "type": "address"
        },
        {
          "internalType": "uint256",
          "name": "id",
          "type": "uint256"
        },
        {
          "internalType": "uint256",
          "name": "amount",
          "type": "uint256"
        },
        {
          "internalType": "bytes",
          "name": "data",
          "type": "bytes"
        }
      ],
      "name": "safeTransferFrom",
      "outputs": [],
      "stateMutability": "nonpayable",
      "type": "function"
    },
    {
      "inputs": [
        {
          "internalType": "address",
          "name": "operator",
          "type": "address"
        },
        {
          "internalType": "bool",
          "name": "approved",
          "type": "bool"
        }
      ],
      "name": "setApprovalForAll",
      "outputs": [],
      "stateMutability": "nonpayable",
      "type": "function"
    },
    {
      "inputs": [
        {
          "internalType": "string",
          "name": "_newURI",
          "type": "string"
        }
      ],
      "name": "setContractURI",
      "outputs": [],
      "stateMutability": "nonpayable",
      "type": "function"
    },
    {
      "inputs": [
        {
          "internalType": "bytes4",
          "name": "interfaceId",
          "type": "bytes4"
        }
      ],
      "name": "supportsInterface",
      "outputs": [
        {
          "internalType": "bool",
          "name": "",
          "type": "bool"
        }
      ],
      "stateMutability": "view",
      "type": "function"
    },
    {
      "inputs": [
        {
          "internalType": "uint256",
          "name": "",
          "type": "uint256"
        }
      ],
      "name": "tokenIdToExistingSupply",
      "outputs": [
        {
          "internalType": "uint256",
          "name": "",
          "type": "uint256"
        }
      ],
      "stateMutability": "view",
      "type": "function"
    },
    {
      "inputs": [
        {
          "internalType": "uint256",
          "name": "",
          "type": "uint256"
        }
      ],
      "name": "tokenIdToMaxSupplyPlusOne",
      "outputs": [
        {
          "internalType": "uint256",
          "name": "",
          "type": "uint256"
        }
      ],
      "stateMutability": "view",
      "type": "function"
    },
    {
      "inputs": [
        {
          "internalType": "uint256",
          "name": "_id",
          "type": "uint256"
        }
      ],
      "name": "totalSupply",
      "outputs": [
        {
          "internalType": "uint256",
          "name": "",
          "type": "uint256"
        }
      ],
      "stateMutability": "view",
      "type": "function"
    },
    {
      "inputs": [
        {
          "internalType": "address",
          "name": "newOwner",
          "type": "address"
        }
      ],
      "name": "transferOwnership",
      "outputs": [],
      "stateMutability": "nonpayable",
      "type": "function"
    },
    {
      "inputs": [
        {
          "internalType": "uint256",
          "name": "",
          "type": "uint256"
        }
      ],
      "name": "uri",
      "outputs": [
        {
          "internalType": "string",
          "name": "",
          "type": "string"
        }
      ],
      "stateMutability": "view",
      "type": "function"
    },
    {
      "inputs": [],
      "name": "withdraw",
      "outputs": [],
      "stateMutability": "payable",
      "type": "function"
    }
  ],
  "bytecode": "0x60806040523480156200001157600080fd5b506040518060600160405280603f815260200162003c7f603f9139620000378162000460565b50620000433362000479565b60405180606001604052806035815260200162003cbe6035913980516200007391600491602090910190620008c5565b5060066020819052600e7f54cdd369e4e8a8515e52ca72ec816c2101831ad1f18bf44102ed171459c9b4f85560197f3e5fec24aa4dc4e5aee2e025e51e1392c72a2500577559fae9665c6d52bd6a31557f8819ef417987f8ae7a81f42cdfb18815282fe989326fbff903d13cf0e03ace295560127f75f96ab15d697e93042dc45b5c896c4b27e89bb6eaf39475c5c371cb2513f7d25560117fc5069e24aaadb2addc3e52e868fcf3f4f8acf5a87e24300992fd4540c2a87eed819055600a7fbfd358e93f18da3ed276c3afdbdba00b8f0b6008a03476a6a86bd6320ee6938b819055600c7f697b2bd7bb2984c4e0dc14c79c987d37818484a62958b9c45a0e8b962f20650f5560157f4ced6d0d36392b04cc5d8761b1327b3bbba6e1089c77f60a9a9ca18e05e4f00e557fb8d683c9d414f481826f3e7fe14b3ac6ae8c73450778287390c4bb8cb9f2e80b82905560097fca4d0c6c94a9477136dd41a99cc19ecbe441c8f6609efe7c6fa65be007a4732355600f7f4da38fc8e544afc56a4c2a17752b8ddb67d8e23ac4583c9029d2e2d1dbe6c988819055600b7f85291c2e7881182c13e19eca9b58927ebfdc2c5d04882018eeb33d8241d35711557f0b94fa1b86997cc1f1148bfbe25b674e8cefc7cc6f976aa8d7c7966bd4cca3479290925560147f248457bacb20e239ae314d8db91c0f270e453c28ee138c84f97aea6cfcf9a4998190557faca6cdb4b5fe0ec50731a73f714dd191dc1911bfeb3f9eeb9e94ed0f6065ef8d81905560087ff130046d53bc87538ab17e4752ba5f5082985eecc06ccb932c5a55e8242dd502557f6fac4587033fa036e2426ad0134940d3a683633cc2b2b7862f39195344f163d192909255600d7f84a4048ee77615560f9afb39551a46e123dd0dd6c928af241dc565271d032569557fee4750d043edce57577a49a1f0c4b389e3b8c38c27dc693bc6b7154c0728077155601360008181527fb72a5233413dd9985e70abb239a7ba917e489fbf2ece87f523c6e26971cc821f91909155604080518381526102a08101909152909181602001602082028036833750506040805160148082526102a082019092529293506000929150602082016102808036833701905050905060005b6014811015620004345780838281518110620003d157634e487b7160e01b600052603260045260246000fd5b60200260200101818152505060018282815181106200040057634e487b7160e01b600052603260045260246000fd5b6020908102919091018101919091526000828152600590915260409020600190556200042c8162000b64565b9050620003a5565b506200045833838360405180602001604052806000815250620004cb60201b60201c565b505062000c40565b805162000475906002906020840190620008c5565b5050565b600380546001600160a01b038381166001600160a01b0319831681179093556040519116919082907f8be0079c531659141344cd1fd0a4f28419497f9722a3daafe3b4186f6b6457e090600090a35050565b6001600160a01b038416620005315760405162461bcd60e51b815260206004820152602160248201527f455243313135353a206d696e7420746f20746865207a65726f206164647265736044820152607360f81b60648201526084015b60405180910390fd5b8151835114620005955760405162461bcd60e51b815260206004820152602860248201527f455243313135353a2069647320616e6420616d6f756e7473206c656e677468206044820152670dad2e6dac2e8c6d60c31b606482015260840162000528565b3360005b84518110156200065557838181518110620005c457634e487b7160e01b600052603260045260246000fd5b6020026020010151600080878481518110620005f057634e487b7160e01b600052603260045260246000fd5b602002602001015181526020019081526020016000206000886001600160a01b03166001600160a01b0316815260200190815260200160002060008282546200063a919062000ad1565b909155508190506200064c8162000b64565b91505062000599565b50846001600160a01b031660006001600160a01b0316826001600160a01b03167f4a39dc06d4c0dbc64b70af90fd698a233a518aa5d07e595d983b8c0526c8f7fb8787604051620006a892919062000a8a565b60405180910390a4620006c181600087878787620006d0565b5050505050565b505050505050565b620006ef846001600160a01b0316620008b660201b620017081760201c565b15620006c85760405163bc197c8160e01b81526001600160a01b0385169063bc197c81906200072b908990899088908890889060040162000a26565b602060405180830381600087803b1580156200074657600080fd5b505af192505050801562000779575060408051601f3d908101601f1916820190925262000776918101906200096b565b60015b6200083a576200078862000b98565b806308c379a01415620007c95750620007a062000bb1565b80620007ad5750620007cb565b8060405162461bcd60e51b815260040162000528919062000abc565b505b60405162461bcd60e51b815260206004820152603460248201527f455243313135353a207472616e7366657220746f206e6f6e204552433131353560448201527f526563656976657220696d706c656d656e746572000000000000000000000000606482015260840162000528565b6001600160e01b0319811663bc197c8160e01b14620008ad5760405162461bcd60e51b815260206004820152602860248201527f455243313135353a204552433131353552656365697665722072656a656374656044820152676420746f6b656e7360c01b606482015260840162000528565b50505050505050565b6001600160a01b03163b151590565b828054620008d39062000aec565b90600052602060002090601f016020900481019282620008f7576000855562000942565b82601f106200091257805160ff191683800117855562000942565b8280016001018555821562000942579182015b828111156200094257825182559160200191906001019062000925565b506200095092915062000954565b5090565b5b8082111562000950576000815560010162000955565b6000602082840312156200097d578081fd5b81516001600160e01b03198116811462000995578182fd5b9392505050565b6000815180845260208085019450808401835b83811015620009cd57815187529582019590820190600101620009af565b509495945050505050565b60008151808452815b81811015620009ff57602081850181015186830182015201620009e1565b8181111562000a115782602083870101525b50601f01601f19169290920160200192915050565b6001600160a01b0386811682528516602082015260a06040820181905260009062000a54908301866200099c565b828103606084015262000a6881866200099c565b9050828103608084015262000a7e8185620009d8565b98975050505050505050565b60408152600062000a9f60408301856200099c565b828103602084015262000ab381856200099c565b95945050505050565b602081526000620009956020830184620009d8565b6000821982111562000ae75762000ae762000b82565b500190565b600181811c9082168062000b0157607f821691505b6020821081141562000b2357634e487b7160e01b600052602260045260246000fd5b50919050565b601f8201601f191681016001600160401b038111828210171562000b5d57634e487b7160e01b600052604160045260246000fd5b6040525050565b600060001982141562000b7b5762000b7b62000b82565b5060010190565b634e487b7160e01b600052601160045260246000fd5b600060033d111562000bae57600481823e5160e01c5b90565b600060443d101562000bc05790565b6040516003193d81016004833e81513d6001600160401b03808311602484018310171562000bf057505050505090565b828501915081518181111562000c095750505050505090565b843d870101602082850101111562000c245750505050505090565b62000c356020828601018762000b29565b509095945050505050565b61302f8062000c506000396000f3fe60806040526004361061018a5760003560e01c8063938e3d7b116100d6578063d901b2bc1161007f578063e985e9c511610059578063e985e9c51461043a578063f242432a14610490578063f2fde38b146104b057600080fd5b8063d901b2bc146103d8578063da8596ba146103f8578063e8a3d4851461042557600080fd5b8063bd85b039116100b0578063bd85b03914610390578063c0e24d5e146103b0578063d351cfdc146103c557600080fd5b8063938e3d7b146103235780639fe88fa514610343578063a22cb4651461037057600080fd5b80632eb2c2d6116101385780634e1273f4116101125780634e1273f4146102ac578063715018a6146102d95780638da5cb5b146102ee57600080fd5b80632eb2c2d614610264578063388b9fe0146102845780633ccfd60b146102a457600080fd5b80630c468087116101695780630c4680871461020d5780630e89341c146102225780631b2ef1ca1461024f57600080fd5b8062fdd58e1461018f57806301ffc9a7146101c257806307e46671146101f2575b600080fd5b34801561019b57600080fd5b506101af6101aa366004612988565b6104d0565b6040519081526020015b60405180910390f35b3480156101ce57600080fd5b506101e26101dd366004612b17565b610593565b60405190151581526020016101b9565b3480156101fe57600080fd5b506101af662386f26fc1000081565b34801561021957600080fd5b506101af601481565b34801561022e57600080fd5b5061024261023d366004612bbc565b610678565b6040516101b99190612d94565b61026261025d366004612bd4565b61070c565b005b34801561027057600080fd5b5061026261027f366004612845565b6108b2565b34801561029057600080fd5b5061026261029f3660046129b1565b610961565b610262610ac1565b3480156102b857600080fd5b506102cc6102c73660046129e3565b610bf9565b6040516101b99190612d53565b3480156102e557600080fd5b50610262610d6f565b3480156102fa57600080fd5b5060035460405173ffffffffffffffffffffffffffffffffffffffff90911681526020016101b9565b34801561032f57600080fd5b5061026261033e366004612b4f565b610de2565b34801561034f57600080fd5b506101af61035e366004612bbc565b60066020526000908152604090205481565b34801561037c57600080fd5b5061026261038b36600461294e565b610e55565b34801561039c57600080fd5b506101af6103ab366004612bbc565b610e64565b3480156103bc57600080fd5b50610242610ec9565b6102626103d3366004612aae565b610f57565b3480156103e457600080fd5b506102626103f3366004612aae565b611229565b34801561040457600080fd5b506101af610413366004612bbc565b60056020526000908152604090205481565b34801561043157600080fd5b506102426114d5565b34801561044657600080fd5b506101e2610455366004612813565b73ffffffffffffffffffffffffffffffffffffffff918216600090815260016020908152604080832093909416825291909152205460ff1690565b34801561049c57600080fd5b506102626104ab3660046128eb565b611567565b3480156104bc57600080fd5b506102626104cb3660046127f2565b61160f565b600073ffffffffffffffffffffffffffffffffffffffff83166105605760405162461bcd60e51b815260206004820152602b60248201527f455243313135353a2062616c616e636520717565727920666f7220746865207a60448201527f65726f206164647265737300000000000000000000000000000000000000000060648201526084015b60405180910390fd5b5060009081526020818152604080832073ffffffffffffffffffffffffffffffffffffffff949094168352929052205490565b60007fffffffff0000000000000000000000000000000000000000000000000000000082167fd9b67a2600000000000000000000000000000000000000000000000000000000148061062657507fffffffff0000000000000000000000000000000000000000000000000000000082167f0e89341c00000000000000000000000000000000000000000000000000000000145b8061067257507f01ffc9a7000000000000000000000000000000000000000000000000000000007fffffffff000000000000000000000000000000000000000000000000000000008316145b92915050565b60606002805461068790612e20565b80601f01602080910402602001604051908101604052809291908181526020018280546106b390612e20565b80156107005780601f106106d557610100808354040283529160200191610700565b820191906000526020600020905b8154815290600101906020018083116106e357829003601f168201915b50505050509050919050565b6014821061075c5760405162461bcd60e51b815260206004820152600f60248201527f6964206d757374206265203c20323000000000000000000000000000000000006044820152606401610557565b6000828152600560209081526040808320546006909252909120546107818383612dcb565b106107ce5760405162461bcd60e51b815260206004820152600f60248201527f737570706c7920657863656564656400000000000000000000000000000000006044820152606401610557565b6107df662386f26fc1000083612de3565b341461082d5760405162461bcd60e51b815260206004820152600d60248201527f696e636f727265637420455448000000000000000000000000000000000000006044820152606401610557565b33321461087c5760405162461bcd60e51b815260206004820152601260248201527f6e6f20736d61727420636f6e74726163747300000000000000000000000000006044820152606401610557565b600083815260056020908152604080832093850193849055805191820190529081526108ad90339085908590611724565b505050565b73ffffffffffffffffffffffffffffffffffffffff85163314806108db57506108db8533610455565b61094d5760405162461bcd60e51b815260206004820152603260248201527f455243313135353a207472616e736665722063616c6c6572206973206e6f742060448201527f6f776e6572206e6f7220617070726f76656400000000000000000000000000006064820152608401610557565b61095a8585858585611871565b5050505050565b60035473ffffffffffffffffffffffffffffffffffffffff1633146109c85760405162461bcd60e51b815260206004820181905260248201527f4f776e61626c653a2063616c6c6572206973206e6f7420746865206f776e65726044820152606401610557565b60148210610a185760405162461bcd60e51b815260206004820152600f60248201527f6964206d757374206265203c20323000000000000000000000000000000000006044820152606401610557565b600082815260056020908152604080832054600690925290912054610a3d8383612dcb565b10610a8a5760405162461bcd60e51b815260206004820152600f60248201527f737570706c7920657863656564656400000000000000000000000000000000006044820152606401610557565b60008381526005602090815260408083209385019384905580519182019052908152610abb90859085908590611724565b50505050565b60035473ffffffffffffffffffffffffffffffffffffffff163314610b285760405162461bcd60e51b815260206004820181905260248201527f4f776e61626c653a2063616c6c6572206973206e6f7420746865206f776e65726044820152606401610557565b6000610b4960035473ffffffffffffffffffffffffffffffffffffffff1690565b73ffffffffffffffffffffffffffffffffffffffff164760405160006040518083038185875af1925050503d8060008114610ba0576040519150601f19603f3d011682016040523d82523d6000602084013e610ba5565b606091505b5050905080610bf65760405162461bcd60e51b815260206004820152601660248201527f6661696c656420746f20776974686472617720455448000000000000000000006044820152606401610557565b50565b60608151835114610c725760405162461bcd60e51b815260206004820152602960248201527f455243313135353a206163636f756e747320616e6420696473206c656e67746860448201527f206d69736d6174636800000000000000000000000000000000000000000000006064820152608401610557565b6000835167ffffffffffffffff811115610c9c57634e487b7160e01b600052604160045260246000fd5b604051908082528060200260200182016040528015610cc5578160200160208202803683370190505b50905060005b8451811015610d6757610d2c858281518110610cf757634e487b7160e01b600052603260045260246000fd5b6020026020010151858381518110610d1f57634e487b7160e01b600052603260045260246000fd5b60200260200101516104d0565b828281518110610d4c57634e487b7160e01b600052603260045260246000fd5b6020908102919091010152610d6081612ea6565b9050610ccb565b509392505050565b60035473ffffffffffffffffffffffffffffffffffffffff163314610dd65760405162461bcd60e51b815260206004820181905260248201527f4f776e61626c653a2063616c6c6572206973206e6f7420746865206f776e65726044820152606401610557565b610de06000611b71565b565b60035473ffffffffffffffffffffffffffffffffffffffff163314610e495760405162461bcd60e51b815260206004820181905260248201527f4f776e61626c653a2063616c6c6572206973206e6f7420746865206f776e65726044820152606401610557565b6108ad600483836125c7565b610e60338383611be8565b5050565b600060148210610eb65760405162461bcd60e51b815260206004820152600f60248201527f6964206d757374206265203c20323000000000000000000000000000000000006044820152606401610557565b5060009081526005602052604090205490565b60048054610ed690612e20565b80601f0160208091040260200160405190810160405280929190818152602001828054610f0290612e20565b8015610f4f5780601f10610f2457610100808354040283529160200191610f4f565b820191906000526020600020905b815481529060010190602001808311610f3257829003601f168201915b505050505081565b600083815b81811015610fa857848482818110610f8457634e487b7160e01b600052603260045260246000fd5b9050602002013583610f969190612dcb565b9250610fa181612ea6565b9050610f5c565b50610fba662386f26fc1000083612de3565b34146110085760405162461bcd60e51b815260206004820152600d60248201527f696e636f727265637420455448000000000000000000000000000000000000006044820152606401610557565b60005b818110156111a457600087878381811061103557634e487b7160e01b600052603260045260246000fd5b905060200201359050600086868481811061106057634e487b7160e01b600052603260045260246000fd5b60008581526005602090815260409091205491029290920135925050601483106110cc5760405162461bcd60e51b815260206004820152600f60248201527f6964206d757374206265203c20323000000000000000000000000000000000006044820152606401610557565b6000838152600660205260409020546110e58383612dcb565b106111325760405162461bcd60e51b815260206004820152600f60248201527f737570706c7920657863656564656400000000000000000000000000000000006044820152606401610557565b3332146111815760405162461bcd60e51b815260206004820152601260248201527f6e6f20736d61727420636f6e74726163747300000000000000000000000000006044820152606401610557565b6000928352600560205260409092209101905561119d81612ea6565b905061100b565b506112213387878080602002602001604051908101604052809392919081815260200183836020028082843760009201919091525050604080516020808b0282810182019093528a82529093508a925089918291850190849080828437600092018290525060408051602081019091529081529250611d22915050565b505050505050565b60035473ffffffffffffffffffffffffffffffffffffffff1633146112905760405162461bcd60e51b815260206004820181905260248201527f4f776e61626c653a2063616c6c6572206973206e6f7420746865206f776e65726044820152606401610557565b8260005b81811015611458576000600560008888858181106112c257634e487b7160e01b600052603260045260246000fd5b90506020020135815260200190815260200160002054905060008787848181106112fc57634e487b7160e01b600052603260045260246000fd5b905060200201359050600086868581811061132757634e487b7160e01b600052603260045260246000fd5b905060200201359050601482106113805760405162461bcd60e51b815260206004820152600f60248201527f6964206d757374206265203c20323000000000000000000000000000000000006044820152606401610557565b6000828152600660205260409020546113998285612dcb565b106113e65760405162461bcd60e51b815260206004820152600f60248201527f737570706c7920657863656564656400000000000000000000000000000000006044820152606401610557565b3332146114355760405162461bcd60e51b815260206004820152601260248201527f6e6f20736d61727420636f6e74726163747300000000000000000000000000006044820152606401610557565b6000918252600560205260409091209101905561145181612ea6565b9050611294565b5061095a3386868080602002602001604051908101604052809392919081815260200183836020028082843760009201919091525050604080516020808a02828101820190935289825290935089925088918291850190849080828437600092018290525060408051602081019091529081529250611d22915050565b6060600480546114e490612e20565b80601f016020809104026020016040519081016040528092919081815260200182805461151090612e20565b801561155d5780601f106115325761010080835404028352916020019161155d565b820191906000526020600020905b81548152906001019060200180831161154057829003601f168201915b5050505050905090565b73ffffffffffffffffffffffffffffffffffffffff851633148061159057506115908533610455565b6116025760405162461bcd60e51b815260206004820152602960248201527f455243313135353a2063616c6c6572206973206e6f74206f776e6572206e6f7260448201527f20617070726f76656400000000000000000000000000000000000000000000006064820152608401610557565b61095a8585858585611f83565b60035473ffffffffffffffffffffffffffffffffffffffff1633146116765760405162461bcd60e51b815260206004820181905260248201527f4f776e61626c653a2063616c6c6572206973206e6f7420746865206f776e65726044820152606401610557565b73ffffffffffffffffffffffffffffffffffffffff81166116ff5760405162461bcd60e51b815260206004820152602660248201527f4f776e61626c653a206e6577206f776e657220697320746865207a65726f206160448201527f64647265737300000000000000000000000000000000000000000000000000006064820152608401610557565b610bf681611b71565b73ffffffffffffffffffffffffffffffffffffffff163b151590565b73ffffffffffffffffffffffffffffffffffffffff84166117ad5760405162461bcd60e51b815260206004820152602160248201527f455243313135353a206d696e7420746f20746865207a65726f2061646472657360448201527f73000000000000000000000000000000000000000000000000000000000000006064820152608401610557565b336117c7816000876117be88612180565b61095a88612180565b60008481526020818152604080832073ffffffffffffffffffffffffffffffffffffffff8916845290915281208054859290611804908490612dcb565b9091555050604080518581526020810185905273ffffffffffffffffffffffffffffffffffffffff80881692600092918516917fc3d58168c5ae7397731d063d5bbf3d657854427343f4c083240f7aacaa2d0f62910160405180910390a461095a816000878787876121d9565b81518351146118e85760405162461bcd60e51b815260206004820152602860248201527f455243313135353a2069647320616e6420616d6f756e7473206c656e6774682060448201527f6d69736d617463680000000000000000000000000000000000000000000000006064820152608401610557565b73ffffffffffffffffffffffffffffffffffffffff84166119715760405162461bcd60e51b815260206004820152602560248201527f455243313135353a207472616e7366657220746f20746865207a65726f20616460448201527f64726573730000000000000000000000000000000000000000000000000000006064820152608401610557565b3360005b8451811015611ae45760008582815181106119a057634e487b7160e01b600052603260045260246000fd5b6020026020010151905060008583815181106119cc57634e487b7160e01b600052603260045260246000fd5b6020908102919091018101516000848152808352604080822073ffffffffffffffffffffffffffffffffffffffff8e168352909352919091205490915081811015611a7f5760405162461bcd60e51b815260206004820152602a60248201527f455243313135353a20696e73756666696369656e742062616c616e636520666f60448201527f72207472616e73666572000000000000000000000000000000000000000000006064820152608401610557565b60008381526020818152604080832073ffffffffffffffffffffffffffffffffffffffff8e8116855292528083208585039055908b16825281208054849290611ac9908490612dcb565b9250508190555050505080611add90612ea6565b9050611975565b508473ffffffffffffffffffffffffffffffffffffffff168673ffffffffffffffffffffffffffffffffffffffff168273ffffffffffffffffffffffffffffffffffffffff167f4a39dc06d4c0dbc64b70af90fd698a233a518aa5d07e595d983b8c0526c8f7fb8787604051611b5b929190612d66565b60405180910390a4611221818787878787612425565b6003805473ffffffffffffffffffffffffffffffffffffffff8381167fffffffffffffffffffffffff0000000000000000000000000000000000000000831681179093556040519116919082907f8be0079c531659141344cd1fd0a4f28419497f9722a3daafe3b4186f6b6457e090600090a35050565b8173ffffffffffffffffffffffffffffffffffffffff168373ffffffffffffffffffffffffffffffffffffffff161415611c8a5760405162461bcd60e51b815260206004820152602960248201527f455243313135353a2073657474696e6720617070726f76616c2073746174757360448201527f20666f722073656c6600000000000000000000000000000000000000000000006064820152608401610557565b73ffffffffffffffffffffffffffffffffffffffff83811660008181526001602090815260408083209487168084529482529182902080547fffffffffffffffffffffffffffffffffffffffffffffffffffffffffffffff001686151590811790915591519182527f17307eab39ab6107e8899845ad3d59bd9653f200f220920489ca2b5937696c31910160405180910390a3505050565b73ffffffffffffffffffffffffffffffffffffffff8416611dab5760405162461bcd60e51b815260206004820152602160248201527f455243313135353a206d696e7420746f20746865207a65726f2061646472657360448201527f73000000000000000000000000000000000000000000000000000000000000006064820152608401610557565b8151835114611e225760405162461bcd60e51b815260206004820152602860248201527f455243313135353a2069647320616e6420616d6f756e7473206c656e6774682060448201527f6d69736d617463680000000000000000000000000000000000000000000000006064820152608401610557565b3360005b8451811015611ef457838181518110611e4f57634e487b7160e01b600052603260045260246000fd5b6020026020010151600080878481518110611e7a57634e487b7160e01b600052603260045260246000fd5b6020026020010151815260200190815260200160002060008873ffffffffffffffffffffffffffffffffffffffff1673ffffffffffffffffffffffffffffffffffffffff1681526020019081526020016000206000828254611edc9190612dcb565b90915550819050611eec81612ea6565b915050611e26565b508473ffffffffffffffffffffffffffffffffffffffff16600073ffffffffffffffffffffffffffffffffffffffff168273ffffffffffffffffffffffffffffffffffffffff167f4a39dc06d4c0dbc64b70af90fd698a233a518aa5d07e595d983b8c0526c8f7fb8787604051611f6c929190612d66565b60405180910390a461095a81600087878787612425565b73ffffffffffffffffffffffffffffffffffffffff841661200c5760405162461bcd60e51b815260206004820152602560248201527f455243313135353a207472616e7366657220746f20746865207a65726f20616460448201527f64726573730000000000000000000000000000000000000000000000000000006064820152608401610557565b3361201c8187876117be88612180565b60008481526020818152604080832073ffffffffffffffffffffffffffffffffffffffff8a168452909152902054838110156120c05760405162461bcd60e51b815260206004820152602a60248201527f455243313135353a20696e73756666696369656e742062616c616e636520666f60448201527f72207472616e73666572000000000000000000000000000000000000000000006064820152608401610557565b60008581526020818152604080832073ffffffffffffffffffffffffffffffffffffffff8b811685529252808320878503905590881682528120805486929061210a908490612dcb565b9091555050604080518681526020810186905273ffffffffffffffffffffffffffffffffffffffff808916928a821692918616917fc3d58168c5ae7397731d063d5bbf3d657854427343f4c083240f7aacaa2d0f62910160405180910390a46121778288888888886121d9565b50505050505050565b604080516001808252818301909252606091600091906020808301908036833701905050905082816000815181106121c857634e487b7160e01b600052603260045260246000fd5b602090810291909101015292915050565b73ffffffffffffffffffffffffffffffffffffffff84163b15611221576040517ff23a6e6100000000000000000000000000000000000000000000000000000000815273ffffffffffffffffffffffffffffffffffffffff85169063f23a6e61906122509089908990889088908890600401612d03565b602060405180830381600087803b15801561226a57600080fd5b505af19250505080156122b8575060408051601f3d9081017fffffffffffffffffffffffffffffffffffffffffffffffffffffffffffffffe01682019092526122b591810190612b33565b60015b61236e576122c4612f0b565b806308c379a014156122fe57506122d9612f23565b806122e45750612300565b8060405162461bcd60e51b81526004016105579190612d94565b505b60405162461bcd60e51b815260206004820152603460248201527f455243313135353a207472616e7366657220746f206e6f6e204552433131353560448201527f526563656976657220696d706c656d656e7465720000000000000000000000006064820152608401610557565b7fffffffff0000000000000000000000000000000000000000000000000000000081167ff23a6e6100000000000000000000000000000000000000000000000000000000146121775760405162461bcd60e51b815260206004820152602860248201527f455243313135353a204552433131353552656365697665722072656a6563746560448201527f6420746f6b656e730000000000000000000000000000000000000000000000006064820152608401610557565b73ffffffffffffffffffffffffffffffffffffffff84163b15611221576040517fbc197c8100000000000000000000000000000000000000000000000000000000815273ffffffffffffffffffffffffffffffffffffffff85169063bc197c819061249c9089908990889088908890600401612c98565b602060405180830381600087803b1580156124b657600080fd5b505af1925050508015612504575060408051601f3d9081017fffffffffffffffffffffffffffffffffffffffffffffffffffffffffffffffe016820190925261250191810190612b33565b60015b612510576122c4612f0b565b7fffffffff0000000000000000000000000000000000000000000000000000000081167fbc197c8100000000000000000000000000000000000000000000000000000000146121775760405162461bcd60e51b815260206004820152602860248201527f455243313135353a204552433131353552656365697665722072656a6563746560448201527f6420746f6b656e730000000000000000000000000000000000000000000000006064820152608401610557565b8280546125d390612e20565b90600052602060002090601f0160209004810192826125f55760008555612659565b82601f1061262c578280017fffffffffffffffffffffffffffffffffffffffffffffffffffffffffffffff00823516178555612659565b82800160010185558215612659579182015b8281111561265957823582559160200191906001019061263e565b50612665929150612669565b5090565b5b80821115612665576000815560010161266a565b803573ffffffffffffffffffffffffffffffffffffffff811681146126a257600080fd5b919050565b60008083601f8401126126b8578182fd5b50813567ffffffffffffffff8111156126cf578182fd5b6020830191508360208260051b85010111156126ea57600080fd5b9250929050565b600082601f830112612701578081fd5b8135602061270e82612da7565b60405161271b8282612e5b565b8381528281019150858301600585901b8701840188101561273a578586fd5b855b858110156127585781358452928401929084019060010161273c565b5090979650505050505050565b600082601f830112612775578081fd5b813567ffffffffffffffff81111561278f5761278f612ef5565b6040516127c460207fffffffffffffffffffffffffffffffffffffffffffffffffffffffffffffffe0601f8501160182612e5b565b8181528460208386010111156127d8578283fd5b816020850160208301379081016020019190915292915050565b600060208284031215612803578081fd5b61280c8261267e565b9392505050565b60008060408385031215612825578081fd5b61282e8361267e565b915061283c6020840161267e565b90509250929050565b600080600080600060a0868803121561285c578081fd5b6128658661267e565b94506128736020870161267e565b9350604086013567ffffffffffffffff8082111561288f578283fd5b61289b89838a016126f1565b945060608801359150808211156128b0578283fd5b6128bc89838a016126f1565b935060808801359150808211156128d1578283fd5b506128de88828901612765565b9150509295509295909350565b600080600080600060a08688031215612902578081fd5b61290b8661267e565b94506129196020870161267e565b93506040860135925060608601359150608086013567ffffffffffffffff811115612942578182fd5b6128de88828901612765565b60008060408385031215612960578182fd5b6129698361267e565b91506020830135801515811461297d578182fd5b809150509250929050565b6000806040838503121561299a578182fd5b6129a38361267e565b946020939093013593505050565b6000806000606084860312156129c5578283fd5b6129ce8461267e565b95602085013595506040909401359392505050565b600080604083850312156129f5578182fd5b823567ffffffffffffffff80821115612a0c578384fd5b818501915085601f830112612a1f578384fd5b81356020612a2c82612da7565b604051612a398282612e5b565b8381528281019150858301600585901b870184018b1015612a58578889fd5b8896505b84871015612a8157612a6d8161267e565b835260019690960195918301918301612a5c565b5096505086013592505080821115612a97578283fd5b50612aa4858286016126f1565b9150509250929050565b60008060008060408587031215612ac3578182fd5b843567ffffffffffffffff80821115612ada578384fd5b612ae6888389016126a7565b90965094506020870135915080821115612afe578384fd5b50612b0b878288016126a7565b95989497509550505050565b600060208284031215612b28578081fd5b813561280c81612fcb565b600060208284031215612b44578081fd5b815161280c81612fcb565b60008060208385031215612b61578182fd5b823567ffffffffffffffff80821115612b78578384fd5b818501915085601f830112612b8b578384fd5b813581811115612b99578485fd5b866020828501011115612baa578485fd5b60209290920196919550909350505050565b600060208284031215612bcd578081fd5b5035919050565b60008060408385031215612be6578182fd5b50508035926020909101359150565b6000815180845260208085019450808401835b83811015612c2457815187529582019590820190600101612c08565b509495945050505050565b60008151808452815b81811015612c5457602081850181015186830182015201612c38565b81811115612c655782602083870101525b50601f017fffffffffffffffffffffffffffffffffffffffffffffffffffffffffffffffe0169290920160200192915050565b600073ffffffffffffffffffffffffffffffffffffffff808816835280871660208401525060a06040830152612cd160a0830186612bf5565b8281036060840152612ce38186612bf5565b90508281036080840152612cf78185612c2f565b98975050505050505050565b600073ffffffffffffffffffffffffffffffffffffffff808816835280871660208401525084604083015283606083015260a06080830152612d4860a0830184612c2f565b979650505050505050565b60208152600061280c6020830184612bf5565b604081526000612d796040830185612bf5565b8281036020840152612d8b8185612bf5565b95945050505050565b60208152600061280c6020830184612c2f565b600067ffffffffffffffff821115612dc157612dc1612ef5565b5060051b60200190565b60008219821115612dde57612dde612edf565b500190565b6000817fffffffffffffffffffffffffffffffffffffffffffffffffffffffffffffffff0483118215151615612e1b57612e1b612edf565b500290565b600181811c90821680612e3457607f821691505b60208210811415612e5557634e487b7160e01b600052602260045260246000fd5b50919050565b7fffffffffffffffffffffffffffffffffffffffffffffffffffffffffffffffe0601f830116810181811067ffffffffffffffff82111715612e9f57612e9f612ef5565b6040525050565b60007fffffffffffffffffffffffffffffffffffffffffffffffffffffffffffffffff821415612ed857612ed8612edf565b5060010190565b634e487b7160e01b600052601160045260246000fd5b634e487b7160e01b600052604160045260246000fd5b600060033d1115612f2057600481823e5160e01c5b90565b600060443d1015612f315790565b6040517ffffffffffffffffffffffffffffffffffffffffffffffffffffffffffffffffc803d016004833e81513d67ffffffffffffffff8160248401118184111715612f7f57505050505090565b8285019150815181811115612f975750505050505090565b843d8701016020828501011115612fb15750505050505090565b612fc060208286010187612e5b565b509095945050505050565b7fffffffff0000000000000000000000000000000000000000000000000000000081168114610bf657600080fdfea2646970667358221220e48d8dae3d6455331d3f137b448f7a42b6b9f3deca15ca13c34d8f26853a59aa64736f6c63430008040033697066733a2f2f516d5741774c526d6f6f65474e43326452626678453165366e69354b585251394678364359776b3479796b4465352f7b69647d2e6a736f6e697066733a2f2f516d5a4148704735755a796a415368454653656e704c4a43314b68474468557a554a5650634b416733545a4b444e",
  "linkReferences": {},
  "deployedLinkReferences": {}
}