{
  "_format": "hh-sol-artifact-1",
  "contractName": "WhoopsieDerpies",
  "sourceName": "contracts/WhoopsieDerpies.sol",
  "abi": [
    {
      "inputs": [],
      "stateMutability": "nonpayable",
      "type": "constructor"
    },
    {
      "anonymous": false,
      "inputs": [
        {
          "indexed": true,
          "internalType": "address",
          "name": "account",
          "type": "address"
        },
        {
          "indexed": true,
          "internalType": "address",
          "name": "operator",
          "type": "address"
        },
        {
          "indexed": false,
          "internalType": "bool",
          "name": "approved",
          "type": "bool"
        }
      ],
      "name": "ApprovalForAll",
      "type": "event"
    },
    {
      "anonymous": false,
      "inputs": [
        {
          "indexed": true,
          "internalType": "address",
          "name": "previousOwner",
          "type": "address"
        },
        {
          "indexed": true,
          "internalType": "address",
          "name": "newOwner",
          "type": "address"
        }
      ],
      "name": "OwnershipTransferred",
      "type": "event"
    },
    {
      "anonymous": false,
      "inputs": [
        {
          "indexed": true,
          "internalType": "address",
          "name": "operator",
          "type": "address"
        },
        {
          "indexed": true,
          "internalType": "address",
          "name": "from",
          "type": "address"
        },
        {
          "indexed": true,
          "internalType": "address",
          "name": "to",
          "type": "address"
        },
        {
          "indexed": false,
          "internalType": "uint256[]",
          "name": "ids",
          "type": "uint256[]"
        },
        {
          "indexed": false,
          "internalType": "uint256[]",
          "name": "values",
          "type": "uint256[]"
        }
      ],
      "name": "TransferBatch",
      "type": "event"
    },
    {
      "anonymous": false,
      "inputs": [
        {
          "indexed": true,
          "internalType": "address",
          "name": "operator",
          "type": "address"
        },
        {
          "indexed": true,
          "internalType": "address",
          "name": "from",
          "type": "address"
        },
        {
          "indexed": true,
          "internalType": "address",
          "name": "to",
          "type": "address"
        },
        {
          "indexed": false,
          "internalType": "uint256",
          "name": "id",
          "type": "uint256"
        },
        {
          "indexed": false,
          "internalType": "uint256",
          "name": "value",
          "type": "uint256"
        }
      ],
      "name": "TransferSingle",
      "type": "event"
    },
    {
      "anonymous": false,
      "inputs": [
        {
          "indexed": false,
          "internalType": "string",
          "name": "value",
          "type": "string"
        },
        {
          "indexed": true,
          "internalType": "uint256",
          "name": "id",
          "type": "uint256"
        }
      ],
      "name": "URI",
      "type": "event"
    },
    {
      "inputs": [],
      "name": "DERPIE_PRICE",
      "outputs": [
        {
          "internalType": "uint256",
          "name": "",
          "type": "uint256"
        }
      ],
      "stateMutability": "view",
      "type": "function"
    },
    {
      "inputs": [],
      "name": "MAX_TOKEN_ID_PLUS_ONE",
      "outputs": [
        {
          "internalType": "uint256",
          "name": "",
          "type": "uint256"
        }
      ],
      "stateMutability": "view",
      "type": "function"
    },
    {
      "inputs": [
        {
          "internalType": "address",
          "name": "account",
          "type": "address"
        },
        {
          "internalType": "uint256",
          "name": "id",
          "type": "uint256"
        }
      ],
      "name": "balanceOf",
      "outputs": [
        {
          "internalType": "uint256",
          "name": "",
          "type": "uint256"
        }
      ],
      "stateMutability": "view",
      "type": "function"
    },
    {
      "inputs": [
        {
          "internalType": "address[]",
          "name": "accounts",
          "type": "address[]"
        },
        {
          "internalType": "uint256[]",
          "name": "ids",
          "type": "uint256[]"
        }
      ],
      "name": "balanceOfBatch",
      "outputs": [
        {
          "internalType": "uint256[]",
          "name": "",
          "type": "uint256[]"
        }
      ],
      "stateMutability": "view",
      "type": "function"
    },
    {
      "inputs": [],
      "name": "contractURI",
      "outputs": [
        {
          "internalType": "string",
          "name": "",
          "type": "string"
        }
      ],
      "stateMutability": "view",
      "type": "function"
    },
    {
      "inputs": [],
      "name": "contractUri",
      "outputs": [
        {
          "internalType": "string",
          "name": "",
          "type": "string"
        }
      ],
      "stateMutability": "view",
      "type": "function"
    },
    {
      "inputs": [
        {
          "internalType": "address",
          "name": "account",
          "type": "address"
        },
        {
          "internalType": "address",
          "name": "operator",
          "type": "address"
        }
      ],
      "name": "isApprovedForAll",
      "outputs": [
        {
          "internalType": "bool",
          "name": "",
          "type": "bool"
        }
      ],
      "stateMutability": "view",
      "type": "function"
    },
    {
      "inputs": [
        {
          "internalType": "uint256",
          "name": "_id",
          "type": "uint256"
        },
        {
          "internalType": "uint256",
          "name": "_amount",
          "type": "uint256"
        }
      ],
      "name": "mint",
      "outputs": [],
      "stateMutability": "payable",
      "type": "function"
    },
    {
      "inputs": [
        {
          "internalType": "uint256[]",
          "name": "_ids",
          "type": "uint256[]"
        },
        {
          "internalType": "uint256[]",
          "name": "_amounts",
          "type": "uint256[]"
        }
      ],
      "name": "mintBatch",
      "outputs": [],
      "stateMutability": "payable",
      "type": "function"
    },
    {
      "inputs": [],
      "name": "owner",
      "outputs": [
        {
          "internalType": "address",
          "name": "",
          "type": "address"
        }
      ],
      "stateMutability": "view",
      "type": "function"
    },
    {
      "inputs": [
        {
          "internalType": "address",
          "name": "_to",
          "type": "address"
        },
        {
          "internalType": "uint256",
          "name": "_id",
          "type": "uint256"
        },
        {
          "internalType": "uint256",
          "name": "_amount",
          "type": "uint256"
        }
      ],
      "name": "ownerMint",
      "outputs": [],
      "stateMutability": "nonpayable",
      "type": "function"
    },
    {
      "inputs": [
        {
          "internalType": "uint256[]",
          "name": "_ids",
          "type": "uint256[]"
        },
        {
          "internalType": "uint256[]",
          "name": "_amounts",
          "type": "uint256[]"
        }
      ],
      "name": "ownerMintBatch",
      "outputs": [],
      "stateMutability": "nonpayable",
      "type": "function"
    },
    {
      "inputs": [],
      "name": "renounceOwnership",
      "outputs": [],
      "stateMutability": "nonpayable",
      "type": "function"
    },
    {
      "inputs": [
        {
          "internalType": "address",
          "name": "from",
          "type": "address"
        },
        {
          "internalType": "address",
          "name": "to",
          "type": "address"
        },
        {
          "internalType": "uint256[]",
          "name": "ids",
          "type": "uint256[]"
        },
        {
          "internalType": "uint256[]",
          "name": "amounts",
          "type": "uint256[]"
        },
        {
          "internalType": "bytes",
          "name": "data",
          "type": "bytes"
        }
      ],
      "name": "safeBatchTransferFrom",
      "outputs": [],
      "stateMutability": "nonpayable",
      "type": "function"
    },
    {
      "inputs": [
        {
          "internalType": "address",
          "name": "from",
          "type": "address"
        },
        {
          "internalType": "address",
          "name": "to",
          "type": "address"
        },
        {
          "internalType": "uint256",
          "name": "id",
          "type": "uint256"
        },
        {
          "internalType": "uint256",
          "name": "amount",
          "type": "uint256"
        },
        {
          "internalType": "bytes",
          "name": "data",
          "type": "bytes"
        }
      ],
      "name": "safeTransferFrom",
      "outputs": [],
      "stateMutability": "nonpayable",
      "type": "function"
    },
    {
      "inputs": [
        {
          "internalType": "address",
          "name": "operator",
          "type": "address"
        },
        {
          "internalType": "bool",
          "name": "approved",
          "type": "bool"
        }
      ],
      "name": "setApprovalForAll",
      "outputs": [],
      "stateMutability": "nonpayable",
      "type": "function"
    },
    {
      "inputs": [
        {
          "internalType": "string",
          "name": "_newURI",
          "type": "string"
        }
      ],
      "name": "setContractURI",
      "outputs": [],
      "stateMutability": "nonpayable",
      "type": "function"
    },
    {
      "inputs": [
        {
          "internalType": "bytes4",
          "name": "interfaceId",
          "type": "bytes4"
        }
      ],
      "name": "supportsInterface",
      "outputs": [
        {
          "internalType": "bool",
          "name": "",
          "type": "bool"
        }
      ],
      "stateMutability": "view",
      "type": "function"
    },
    {
      "inputs": [
        {
          "internalType": "uint256",
          "name": "",
          "type": "uint256"
        }
      ],
      "name": "tokenIdToExistingSupply",
      "outputs": [
        {
          "internalType": "uint256",
          "name": "",
          "type": "uint256"
        }
      ],
      "stateMutability": "view",
      "type": "function"
    },
    {
      "inputs": [
        {
          "internalType": "uint256",
          "name": "",
          "type": "uint256"
        }
      ],
      "name": "tokenIdToMaxSupplyPlusOne",
      "outputs": [
        {
          "internalType": "uint256",
          "name": "",
          "type": "uint256"
        }
      ],
      "stateMutability": "view",
      "type": "function"
    },
    {
      "inputs": [
        {
          "internalType": "address",
          "name": "newOwner",
          "type": "address"
        }
      ],
      "name": "transferOwnership",
      "outputs": [],
      "stateMutability": "nonpayable",
      "type": "function"
    },
    {
      "inputs": [
        {
          "internalType": "uint256",
          "name": "",
          "type": "uint256"
        }
      ],
      "name": "uri",
      "outputs": [
        {
          "internalType": "string",
          "name": "",
          "type": "string"
        }
      ],
      "stateMutability": "view",
      "type": "function"
    },
    {
      "inputs": [],
      "name": "withdraw",
      "outputs": [],
      "stateMutability": "payable",
      "type": "function"
    }
  ],
  "bytecode": "0x60806040523480156200001157600080fd5b506040518060600160405280603f815260200162003bef603f9139620000378162000460565b50620000433362000479565b60405180606001604052806035815260200162003c2e6035913980516200007391600491602090910190620008c5565b5060066020819052600e7f54cdd369e4e8a8515e52ca72ec816c2101831ad1f18bf44102ed171459c9b4f85560197f3e5fec24aa4dc4e5aee2e025e51e1392c72a2500577559fae9665c6d52bd6a31557f8819ef417987f8ae7a81f42cdfb18815282fe989326fbff903d13cf0e03ace295560127f75f96ab15d697e93042dc45b5c896c4b27e89bb6eaf39475c5c371cb2513f7d25560117fc5069e24aaadb2addc3e52e868fcf3f4f8acf5a87e24300992fd4540c2a87eed819055600a7fbfd358e93f18da3ed276c3afdbdba00b8f0b6008a03476a6a86bd6320ee6938b819055600c7f697b2bd7bb2984c4e0dc14c79c987d37818484a62958b9c45a0e8b962f20650f5560157f4ced6d0d36392b04cc5d8761b1327b3bbba6e1089c77f60a9a9ca18e05e4f00e557fb8d683c9d414f481826f3e7fe14b3ac6ae8c73450778287390c4bb8cb9f2e80b82905560097fca4d0c6c94a9477136dd41a99cc19ecbe441c8f6609efe7c6fa65be007a4732355600f7f4da38fc8e544afc56a4c2a17752b8ddb67d8e23ac4583c9029d2e2d1dbe6c988819055600b7f85291c2e7881182c13e19eca9b58927ebfdc2c5d04882018eeb33d8241d35711557f0b94fa1b86997cc1f1148bfbe25b674e8cefc7cc6f976aa8d7c7966bd4cca3479290925560147f248457bacb20e239ae314d8db91c0f270e453c28ee138c84f97aea6cfcf9a4998190557faca6cdb4b5fe0ec50731a73f714dd191dc1911bfeb3f9eeb9e94ed0f6065ef8d81905560087ff130046d53bc87538ab17e4752ba5f5082985eecc06ccb932c5a55e8242dd502557f6fac4587033fa036e2426ad0134940d3a683633cc2b2b7862f39195344f163d192909255600d7f84a4048ee77615560f9afb39551a46e123dd0dd6c928af241dc565271d032569557fee4750d043edce57577a49a1f0c4b389e3b8c38c27dc693bc6b7154c0728077155601360008181527fb72a5233413dd9985e70abb239a7ba917e489fbf2ece87f523c6e26971cc821f91909155604080518381526102a08101909152909181602001602082028036833750506040805160148082526102a082019092529293506000929150602082016102808036833701905050905060005b6014811015620004345780838281518110620003d157634e487b7160e01b600052603260045260246000fd5b60200260200101818152505060018282815181106200040057634e487b7160e01b600052603260045260246000fd5b6020908102919091018101919091526000828152600590915260409020600190556200042c8162000b64565b9050620003a5565b506200045833838360405180602001604052806000815250620004cb60201b60201c565b505062000c40565b805162000475906002906020840190620008c5565b5050565b600380546001600160a01b038381166001600160a01b0319831681179093556040519116919082907f8be0079c531659141344cd1fd0a4f28419497f9722a3daafe3b4186f6b6457e090600090a35050565b6001600160a01b038416620005315760405162461bcd60e51b815260206004820152602160248201527f455243313135353a206d696e7420746f20746865207a65726f206164647265736044820152607360f81b60648201526084015b60405180910390fd5b8151835114620005955760405162461bcd60e51b815260206004820152602860248201527f455243313135353a2069647320616e6420616d6f756e7473206c656e677468206044820152670dad2e6dac2e8c6d60c31b606482015260840162000528565b3360005b84518110156200065557838181518110620005c457634e487b7160e01b600052603260045260246000fd5b6020026020010151600080878481518110620005f057634e487b7160e01b600052603260045260246000fd5b602002602001015181526020019081526020016000206000886001600160a01b03166001600160a01b0316815260200190815260200160002060008282546200063a919062000ad1565b909155508190506200064c8162000b64565b91505062000599565b50846001600160a01b031660006001600160a01b0316826001600160a01b03167f4a39dc06d4c0dbc64b70af90fd698a233a518aa5d07e595d983b8c0526c8f7fb8787604051620006a892919062000a8a565b60405180910390a4620006c181600087878787620006d0565b5050505050565b505050505050565b620006ef846001600160a01b0316620008b660201b620016781760201c565b15620006c85760405163bc197c8160e01b81526001600160a01b0385169063bc197c81906200072b908990899088908890889060040162000a26565b602060405180830381600087803b1580156200074657600080fd5b505af192505050801562000779575060408051601f3d908101601f1916820190925262000776918101906200096b565b60015b6200083a576200078862000b98565b806308c379a01415620007c95750620007a062000bb1565b80620007ad5750620007cb565b8060405162461bcd60e51b815260040162000528919062000abc565b505b60405162461bcd60e51b815260206004820152603460248201527f455243313135353a207472616e7366657220746f206e6f6e204552433131353560448201527f526563656976657220696d706c656d656e746572000000000000000000000000606482015260840162000528565b6001600160e01b0319811663bc197c8160e01b14620008ad5760405162461bcd60e51b815260206004820152602860248201527f455243313135353a204552433131353552656365697665722072656a656374656044820152676420746f6b656e7360c01b606482015260840162000528565b50505050505050565b6001600160a01b03163b151590565b828054620008d39062000aec565b90600052602060002090601f016020900481019282620008f7576000855562000942565b82601f106200091257805160ff191683800117855562000942565b8280016001018555821562000942579182015b828111156200094257825182559160200191906001019062000925565b506200095092915062000954565b5090565b5b8082111562000950576000815560010162000955565b6000602082840312156200097d578081fd5b81516001600160e01b03198116811462000995578182fd5b9392505050565b6000815180845260208085019450808401835b83811015620009cd57815187529582019590820190600101620009af565b509495945050505050565b60008151808452815b81811015620009ff57602081850181015186830182015201620009e1565b8181111562000a115782602083870101525b50601f01601f19169290920160200192915050565b6001600160a01b0386811682528516602082015260a06040820181905260009062000a54908301866200099c565b828103606084015262000a6881866200099c565b9050828103608084015262000a7e8185620009d8565b98975050505050505050565b60408152600062000a9f60408301856200099c565b828103602084015262000ab381856200099c565b95945050505050565b602081526000620009956020830184620009d8565b6000821982111562000ae75762000ae762000b82565b500190565b600181811c9082168062000b0157607f821691505b6020821081141562000b2357634e487b7160e01b600052602260045260246000fd5b50919050565b601f8201601f191681016001600160401b038111828210171562000b5d57634e487b7160e01b600052604160045260246000fd5b6040525050565b600060001982141562000b7b5762000b7b62000b82565b5060010190565b634e487b7160e01b600052601160045260246000fd5b600060033d111562000bae57600481823e5160e01c5b90565b600060443d101562000bc05790565b6040516003193d81016004833e81513d6001600160401b03808311602484018310171562000bf057505050505090565b828501915081518181111562000c095750505050505090565b843d870101602082850101111562000c245750505050505090565b62000c356020828601018762000b29565b509095945050505050565b612f9f8062000c506000396000f3fe60806040526004361061017f5760003560e01c80638da5cb5b116100d6578063d901b2bc1161007f578063e985e9c511610059578063e985e9c51461040f578063f242432a14610465578063f2fde38b1461048557600080fd5b8063d901b2bc146103ad578063da8596ba146103cd578063e8a3d485146103fa57600080fd5b8063a22cb465116100b0578063a22cb46514610365578063c0e24d5e14610385578063d351cfdc1461039a57600080fd5b80638da5cb5b146102e3578063938e3d7b146103185780639fe88fa51461033857600080fd5b80631b2ef1ca116101385780633ccfd60b116101125780633ccfd60b146102995780634e1273f4146102a1578063715018a6146102ce57600080fd5b80631b2ef1ca146102445780632eb2c2d614610259578063388b9fe01461027957600080fd5b806307e466711161016957806307e46671146101e75780630c468087146102025780630e89341c1461021757600080fd5b8062fdd58e1461018457806301ffc9a7146101b7575b600080fd5b34801561019057600080fd5b506101a461019f3660046128f8565b6104a5565b6040519081526020015b60405180910390f35b3480156101c357600080fd5b506101d76101d2366004612a87565b610568565b60405190151581526020016101ae565b3480156101f357600080fd5b506101a4662386f26fc1000081565b34801561020e57600080fd5b506101a4601481565b34801561022357600080fd5b50610237610232366004612b2c565b61064d565b6040516101ae9190612d04565b610257610252366004612b44565b6106e1565b005b34801561026557600080fd5b506102576102743660046127b5565b610887565b34801561028557600080fd5b50610257610294366004612921565b610936565b610257610a96565b3480156102ad57600080fd5b506102c16102bc366004612953565b610bce565b6040516101ae9190612cc3565b3480156102da57600080fd5b50610257610d44565b3480156102ef57600080fd5b5060035460405173ffffffffffffffffffffffffffffffffffffffff90911681526020016101ae565b34801561032457600080fd5b50610257610333366004612abf565b610db7565b34801561034457600080fd5b506101a4610353366004612b2c565b60066020526000908152604090205481565b34801561037157600080fd5b506102576103803660046128be565b610e2a565b34801561039157600080fd5b50610237610e39565b6102576103a8366004612a1e565b610ec7565b3480156103b957600080fd5b506102576103c8366004612a1e565b611199565b3480156103d957600080fd5b506101a46103e8366004612b2c565b60056020526000908152604090205481565b34801561040657600080fd5b50610237611445565b34801561041b57600080fd5b506101d761042a366004612783565b73ffffffffffffffffffffffffffffffffffffffff918216600090815260016020908152604080832093909416825291909152205460ff1690565b34801561047157600080fd5b5061025761048036600461285b565b6114d7565b34801561049157600080fd5b506102576104a0366004612762565b61157f565b600073ffffffffffffffffffffffffffffffffffffffff83166105355760405162461bcd60e51b815260206004820152602b60248201527f455243313135353a2062616c616e636520717565727920666f7220746865207a60448201527f65726f206164647265737300000000000000000000000000000000000000000060648201526084015b60405180910390fd5b5060009081526020818152604080832073ffffffffffffffffffffffffffffffffffffffff949094168352929052205490565b60007fffffffff0000000000000000000000000000000000000000000000000000000082167fd9b67a260000000000000000000000000000000000000000000000000000000014806105fb57507fffffffff0000000000000000000000000000000000000000000000000000000082167f0e89341c00000000000000000000000000000000000000000000000000000000145b8061064757507f01ffc9a7000000000000000000000000000000000000000000000000000000007fffffffff000000000000000000000000000000000000000000000000000000008316145b92915050565b60606002805461065c90612d90565b80601f016020809104026020016040519081016040528092919081815260200182805461068890612d90565b80156106d55780601f106106aa576101008083540402835291602001916106d5565b820191906000526020600020905b8154815290600101906020018083116106b857829003601f168201915b50505050509050919050565b601482106107315760405162461bcd60e51b815260206004820152600f60248201527f6964206d757374206265203c2032300000000000000000000000000000000000604482015260640161052c565b6000828152600560209081526040808320546006909252909120546107568383612d3b565b106107a35760405162461bcd60e51b815260206004820152600f60248201527f737570706c792065786365656465640000000000000000000000000000000000604482015260640161052c565b6107b4662386f26fc1000083612d53565b34146108025760405162461bcd60e51b815260206004820152600d60248201527f696e636f72726563742045544800000000000000000000000000000000000000604482015260640161052c565b3332146108515760405162461bcd60e51b815260206004820152601260248201527f6e6f20736d61727420636f6e7472616374730000000000000000000000000000604482015260640161052c565b6000838152600560209081526040808320938501938490558051918201905290815261088290339085908590611694565b505050565b73ffffffffffffffffffffffffffffffffffffffff85163314806108b057506108b0853361042a565b6109225760405162461bcd60e51b815260206004820152603260248201527f455243313135353a207472616e736665722063616c6c6572206973206e6f742060448201527f6f776e6572206e6f7220617070726f7665640000000000000000000000000000606482015260840161052c565b61092f85858585856117e1565b5050505050565b60035473ffffffffffffffffffffffffffffffffffffffff16331461099d5760405162461bcd60e51b815260206004820181905260248201527f4f776e61626c653a2063616c6c6572206973206e6f7420746865206f776e6572604482015260640161052c565b601482106109ed5760405162461bcd60e51b815260206004820152600f60248201527f6964206d757374206265203c2032300000000000000000000000000000000000604482015260640161052c565b600082815260056020908152604080832054600690925290912054610a128383612d3b565b10610a5f5760405162461bcd60e51b815260206004820152600f60248201527f737570706c792065786365656465640000000000000000000000000000000000604482015260640161052c565b60008381526005602090815260408083209385019384905580519182019052908152610a9090859085908590611694565b50505050565b60035473ffffffffffffffffffffffffffffffffffffffff163314610afd5760405162461bcd60e51b815260206004820181905260248201527f4f776e61626c653a2063616c6c6572206973206e6f7420746865206f776e6572604482015260640161052c565b6000610b1e60035473ffffffffffffffffffffffffffffffffffffffff1690565b73ffffffffffffffffffffffffffffffffffffffff164760405160006040518083038185875af1925050503d8060008114610b75576040519150601f19603f3d011682016040523d82523d6000602084013e610b7a565b606091505b5050905080610bcb5760405162461bcd60e51b815260206004820152601660248201527f6661696c656420746f2077697468647261772045544800000000000000000000604482015260640161052c565b50565b60608151835114610c475760405162461bcd60e51b815260206004820152602960248201527f455243313135353a206163636f756e747320616e6420696473206c656e67746860448201527f206d69736d617463680000000000000000000000000000000000000000000000606482015260840161052c565b6000835167ffffffffffffffff811115610c7157634e487b7160e01b600052604160045260246000fd5b604051908082528060200260200182016040528015610c9a578160200160208202803683370190505b50905060005b8451811015610d3c57610d01858281518110610ccc57634e487b7160e01b600052603260045260246000fd5b6020026020010151858381518110610cf457634e487b7160e01b600052603260045260246000fd5b60200260200101516104a5565b828281518110610d2157634e487b7160e01b600052603260045260246000fd5b6020908102919091010152610d3581612e16565b9050610ca0565b509392505050565b60035473ffffffffffffffffffffffffffffffffffffffff163314610dab5760405162461bcd60e51b815260206004820181905260248201527f4f776e61626c653a2063616c6c6572206973206e6f7420746865206f776e6572604482015260640161052c565b610db56000611ae1565b565b60035473ffffffffffffffffffffffffffffffffffffffff163314610e1e5760405162461bcd60e51b815260206004820181905260248201527f4f776e61626c653a2063616c6c6572206973206e6f7420746865206f776e6572604482015260640161052c565b61088260048383612537565b610e35338383611b58565b5050565b60048054610e4690612d90565b80601f0160208091040260200160405190810160405280929190818152602001828054610e7290612d90565b8015610ebf5780601f10610e9457610100808354040283529160200191610ebf565b820191906000526020600020905b815481529060010190602001808311610ea257829003601f168201915b505050505081565b600083815b81811015610f1857848482818110610ef457634e487b7160e01b600052603260045260246000fd5b9050602002013583610f069190612d3b565b9250610f1181612e16565b9050610ecc565b50610f2a662386f26fc1000083612d53565b3414610f785760405162461bcd60e51b815260206004820152600d60248201527f696e636f72726563742045544800000000000000000000000000000000000000604482015260640161052c565b60005b81811015611114576000878783818110610fa557634e487b7160e01b600052603260045260246000fd5b9050602002013590506000868684818110610fd057634e487b7160e01b600052603260045260246000fd5b600085815260056020908152604090912054910292909201359250506014831061103c5760405162461bcd60e51b815260206004820152600f60248201527f6964206d757374206265203c2032300000000000000000000000000000000000604482015260640161052c565b6000838152600660205260409020546110558383612d3b565b106110a25760405162461bcd60e51b815260206004820152600f60248201527f737570706c792065786365656465640000000000000000000000000000000000604482015260640161052c565b3332146110f15760405162461bcd60e51b815260206004820152601260248201527f6e6f20736d61727420636f6e7472616374730000000000000000000000000000604482015260640161052c565b6000928352600560205260409092209101905561110d81612e16565b9050610f7b565b506111913387878080602002602001604051908101604052809392919081815260200183836020028082843760009201919091525050604080516020808b0282810182019093528a82529093508a925089918291850190849080828437600092018290525060408051602081019091529081529250611c92915050565b505050505050565b60035473ffffffffffffffffffffffffffffffffffffffff1633146112005760405162461bcd60e51b815260206004820181905260248201527f4f776e61626c653a2063616c6c6572206973206e6f7420746865206f776e6572604482015260640161052c565b8260005b818110156113c85760006005600088888581811061123257634e487b7160e01b600052603260045260246000fd5b905060200201358152602001908152602001600020549050600087878481811061126c57634e487b7160e01b600052603260045260246000fd5b905060200201359050600086868581811061129757634e487b7160e01b600052603260045260246000fd5b905060200201359050601482106112f05760405162461bcd60e51b815260206004820152600f60248201527f6964206d757374206265203c2032300000000000000000000000000000000000604482015260640161052c565b6000828152600660205260409020546113098285612d3b565b106113565760405162461bcd60e51b815260206004820152600f60248201527f737570706c792065786365656465640000000000000000000000000000000000604482015260640161052c565b3332146113a55760405162461bcd60e51b815260206004820152601260248201527f6e6f20736d61727420636f6e7472616374730000000000000000000000000000604482015260640161052c565b600091825260056020526040909120910190556113c181612e16565b9050611204565b5061092f3386868080602002602001604051908101604052809392919081815260200183836020028082843760009201919091525050604080516020808a02828101820190935289825290935089925088918291850190849080828437600092018290525060408051602081019091529081529250611c92915050565b60606004805461145490612d90565b80601f016020809104026020016040519081016040528092919081815260200182805461148090612d90565b80156114cd5780601f106114a2576101008083540402835291602001916114cd565b820191906000526020600020905b8154815290600101906020018083116114b057829003601f168201915b5050505050905090565b73ffffffffffffffffffffffffffffffffffffffff85163314806115005750611500853361042a565b6115725760405162461bcd60e51b815260206004820152602960248201527f455243313135353a2063616c6c6572206973206e6f74206f776e6572206e6f7260448201527f20617070726f7665640000000000000000000000000000000000000000000000606482015260840161052c565b61092f8585858585611ef3565b60035473ffffffffffffffffffffffffffffffffffffffff1633146115e65760405162461bcd60e51b815260206004820181905260248201527f4f776e61626c653a2063616c6c6572206973206e6f7420746865206f776e6572604482015260640161052c565b73ffffffffffffffffffffffffffffffffffffffff811661166f5760405162461bcd60e51b815260206004820152602660248201527f4f776e61626c653a206e6577206f776e657220697320746865207a65726f206160448201527f6464726573730000000000000000000000000000000000000000000000000000606482015260840161052c565b610bcb81611ae1565b73ffffffffffffffffffffffffffffffffffffffff163b151590565b73ffffffffffffffffffffffffffffffffffffffff841661171d5760405162461bcd60e51b815260206004820152602160248201527f455243313135353a206d696e7420746f20746865207a65726f2061646472657360448201527f7300000000000000000000000000000000000000000000000000000000000000606482015260840161052c565b336117378160008761172e886120f0565b61092f886120f0565b60008481526020818152604080832073ffffffffffffffffffffffffffffffffffffffff8916845290915281208054859290611774908490612d3b565b9091555050604080518581526020810185905273ffffffffffffffffffffffffffffffffffffffff80881692600092918516917fc3d58168c5ae7397731d063d5bbf3d657854427343f4c083240f7aacaa2d0f62910160405180910390a461092f81600087878787612149565b81518351146118585760405162461bcd60e51b815260206004820152602860248201527f455243313135353a2069647320616e6420616d6f756e7473206c656e6774682060448201527f6d69736d61746368000000000000000000000000000000000000000000000000606482015260840161052c565b73ffffffffffffffffffffffffffffffffffffffff84166118e15760405162461bcd60e51b815260206004820152602560248201527f455243313135353a207472616e7366657220746f20746865207a65726f20616460448201527f6472657373000000000000000000000000000000000000000000000000000000606482015260840161052c565b3360005b8451811015611a5457600085828151811061191057634e487b7160e01b600052603260045260246000fd5b60200260200101519050600085838151811061193c57634e487b7160e01b600052603260045260246000fd5b6020908102919091018101516000848152808352604080822073ffffffffffffffffffffffffffffffffffffffff8e1683529093529190912054909150818110156119ef5760405162461bcd60e51b815260206004820152602a60248201527f455243313135353a20696e73756666696369656e742062616c616e636520666f60448201527f72207472616e7366657200000000000000000000000000000000000000000000606482015260840161052c565b60008381526020818152604080832073ffffffffffffffffffffffffffffffffffffffff8e8116855292528083208585039055908b16825281208054849290611a39908490612d3b565b9250508190555050505080611a4d90612e16565b90506118e5565b508473ffffffffffffffffffffffffffffffffffffffff168673ffffffffffffffffffffffffffffffffffffffff168273ffffffffffffffffffffffffffffffffffffffff167f4a39dc06d4c0dbc64b70af90fd698a233a518aa5d07e595d983b8c0526c8f7fb8787604051611acb929190612cd6565b60405180910390a4611191818787878787612395565b6003805473ffffffffffffffffffffffffffffffffffffffff8381167fffffffffffffffffffffffff0000000000000000000000000000000000000000831681179093556040519116919082907f8be0079c531659141344cd1fd0a4f28419497f9722a3daafe3b4186f6b6457e090600090a35050565b8173ffffffffffffffffffffffffffffffffffffffff168373ffffffffffffffffffffffffffffffffffffffff161415611bfa5760405162461bcd60e51b815260206004820152602960248201527f455243313135353a2073657474696e6720617070726f76616c2073746174757360448201527f20666f722073656c660000000000000000000000000000000000000000000000606482015260840161052c565b73ffffffffffffffffffffffffffffffffffffffff83811660008181526001602090815260408083209487168084529482529182902080547fffffffffffffffffffffffffffffffffffffffffffffffffffffffffffffff001686151590811790915591519182527f17307eab39ab6107e8899845ad3d59bd9653f200f220920489ca2b5937696c31910160405180910390a3505050565b73ffffffffffffffffffffffffffffffffffffffff8416611d1b5760405162461bcd60e51b815260206004820152602160248201527f455243313135353a206d696e7420746f20746865207a65726f2061646472657360448201527f7300000000000000000000000000000000000000000000000000000000000000606482015260840161052c565b8151835114611d925760405162461bcd60e51b815260206004820152602860248201527f455243313135353a2069647320616e6420616d6f756e7473206c656e6774682060448201527f6d69736d61746368000000000000000000000000000000000000000000000000606482015260840161052c565b3360005b8451811015611e6457838181518110611dbf57634e487b7160e01b600052603260045260246000fd5b6020026020010151600080878481518110611dea57634e487b7160e01b600052603260045260246000fd5b6020026020010151815260200190815260200160002060008873ffffffffffffffffffffffffffffffffffffffff1673ffffffffffffffffffffffffffffffffffffffff1681526020019081526020016000206000828254611e4c9190612d3b565b90915550819050611e5c81612e16565b915050611d96565b508473ffffffffffffffffffffffffffffffffffffffff16600073ffffffffffffffffffffffffffffffffffffffff168273ffffffffffffffffffffffffffffffffffffffff167f4a39dc06d4c0dbc64b70af90fd698a233a518aa5d07e595d983b8c0526c8f7fb8787604051611edc929190612cd6565b60405180910390a461092f81600087878787612395565b73ffffffffffffffffffffffffffffffffffffffff8416611f7c5760405162461bcd60e51b815260206004820152602560248201527f455243313135353a207472616e7366657220746f20746865207a65726f20616460448201527f6472657373000000000000000000000000000000000000000000000000000000606482015260840161052c565b33611f8c81878761172e886120f0565b60008481526020818152604080832073ffffffffffffffffffffffffffffffffffffffff8a168452909152902054838110156120305760405162461bcd60e51b815260206004820152602a60248201527f455243313135353a20696e73756666696369656e742062616c616e636520666f60448201527f72207472616e7366657200000000000000000000000000000000000000000000606482015260840161052c565b60008581526020818152604080832073ffffffffffffffffffffffffffffffffffffffff8b811685529252808320878503905590881682528120805486929061207a908490612d3b565b9091555050604080518681526020810186905273ffffffffffffffffffffffffffffffffffffffff808916928a821692918616917fc3d58168c5ae7397731d063d5bbf3d657854427343f4c083240f7aacaa2d0f62910160405180910390a46120e7828888888888612149565b50505050505050565b6040805160018082528183019092526060916000919060208083019080368337019050509050828160008151811061213857634e487b7160e01b600052603260045260246000fd5b602090810291909101015292915050565b73ffffffffffffffffffffffffffffffffffffffff84163b15611191576040517ff23a6e6100000000000000000000000000000000000000000000000000000000815273ffffffffffffffffffffffffffffffffffffffff85169063f23a6e61906121c09089908990889088908890600401612c73565b602060405180830381600087803b1580156121da57600080fd5b505af1925050508015612228575060408051601f3d9081017fffffffffffffffffffffffffffffffffffffffffffffffffffffffffffffffe016820190925261222591810190612aa3565b60015b6122de57612234612e7b565b806308c379a0141561226e5750612249612e93565b806122545750612270565b8060405162461bcd60e51b815260040161052c9190612d04565b505b60405162461bcd60e51b815260206004820152603460248201527f455243313135353a207472616e7366657220746f206e6f6e204552433131353560448201527f526563656976657220696d706c656d656e746572000000000000000000000000606482015260840161052c565b7fffffffff0000000000000000000000000000000000000000000000000000000081167ff23a6e6100000000000000000000000000000000000000000000000000000000146120e75760405162461bcd60e51b815260206004820152602860248201527f455243313135353a204552433131353552656365697665722072656a6563746560448201527f6420746f6b656e73000000000000000000000000000000000000000000000000606482015260840161052c565b73ffffffffffffffffffffffffffffffffffffffff84163b15611191576040517fbc197c8100000000000000000000000000000000000000000000000000000000815273ffffffffffffffffffffffffffffffffffffffff85169063bc197c819061240c9089908990889088908890600401612c08565b602060405180830381600087803b15801561242657600080fd5b505af1925050508015612474575060408051601f3d9081017fffffffffffffffffffffffffffffffffffffffffffffffffffffffffffffffe016820190925261247191810190612aa3565b60015b61248057612234612e7b565b7fffffffff0000000000000000000000000000000000000000000000000000000081167fbc197c8100000000000000000000000000000000000000000000000000000000146120e75760405162461bcd60e51b815260206004820152602860248201527f455243313135353a204552433131353552656365697665722072656a6563746560448201527f6420746f6b656e73000000000000000000000000000000000000000000000000606482015260840161052c565b82805461254390612d90565b90600052602060002090601f01602090048101928261256557600085556125c9565b82601f1061259c578280017fffffffffffffffffffffffffffffffffffffffffffffffffffffffffffffff008235161785556125c9565b828001600101855582156125c9579182015b828111156125c95782358255916020019190600101906125ae565b506125d59291506125d9565b5090565b5b808211156125d557600081556001016125da565b803573ffffffffffffffffffffffffffffffffffffffff8116811461261257600080fd5b919050565b60008083601f840112612628578182fd5b50813567ffffffffffffffff81111561263f578182fd5b6020830191508360208260051b850101111561265a57600080fd5b9250929050565b600082601f830112612671578081fd5b8135602061267e82612d17565b60405161268b8282612dcb565b8381528281019150858301600585901b870184018810156126aa578586fd5b855b858110156126c8578135845292840192908401906001016126ac565b5090979650505050505050565b600082601f8301126126e5578081fd5b813567ffffffffffffffff8111156126ff576126ff612e65565b60405161273460207fffffffffffffffffffffffffffffffffffffffffffffffffffffffffffffffe0601f8501160182612dcb565b818152846020838601011115612748578283fd5b816020850160208301379081016020019190915292915050565b600060208284031215612773578081fd5b61277c826125ee565b9392505050565b60008060408385031215612795578081fd5b61279e836125ee565b91506127ac602084016125ee565b90509250929050565b600080600080600060a086880312156127cc578081fd5b6127d5866125ee565b94506127e3602087016125ee565b9350604086013567ffffffffffffffff808211156127ff578283fd5b61280b89838a01612661565b94506060880135915080821115612820578283fd5b61282c89838a01612661565b93506080880135915080821115612841578283fd5b5061284e888289016126d5565b9150509295509295909350565b600080600080600060a08688031215612872578081fd5b61287b866125ee565b9450612889602087016125ee565b93506040860135925060608601359150608086013567ffffffffffffffff8111156128b2578182fd5b61284e888289016126d5565b600080604083850312156128d0578182fd5b6128d9836125ee565b9150602083013580151581146128ed578182fd5b809150509250929050565b6000806040838503121561290a578182fd5b612913836125ee565b946020939093013593505050565b600080600060608486031215612935578283fd5b61293e846125ee565b95602085013595506040909401359392505050565b60008060408385031215612965578182fd5b823567ffffffffffffffff8082111561297c578384fd5b818501915085601f83011261298f578384fd5b8135602061299c82612d17565b6040516129a98282612dcb565b8381528281019150858301600585901b870184018b10156129c8578889fd5b8896505b848710156129f1576129dd816125ee565b8352600196909601959183019183016129cc565b5096505086013592505080821115612a07578283fd5b50612a1485828601612661565b9150509250929050565b60008060008060408587031215612a33578182fd5b843567ffffffffffffffff80821115612a4a578384fd5b612a5688838901612617565b90965094506020870135915080821115612a6e578384fd5b50612a7b87828801612617565b95989497509550505050565b600060208284031215612a98578081fd5b813561277c81612f3b565b600060208284031215612ab4578081fd5b815161277c81612f3b565b60008060208385031215612ad1578182fd5b823567ffffffffffffffff80821115612ae8578384fd5b818501915085601f830112612afb578384fd5b813581811115612b09578485fd5b866020828501011115612b1a578485fd5b60209290920196919550909350505050565b600060208284031215612b3d578081fd5b5035919050565b60008060408385031215612b56578182fd5b50508035926020909101359150565b6000815180845260208085019450808401835b83811015612b9457815187529582019590820190600101612b78565b509495945050505050565b60008151808452815b81811015612bc457602081850181015186830182015201612ba8565b81811115612bd55782602083870101525b50601f017fffffffffffffffffffffffffffffffffffffffffffffffffffffffffffffffe0169290920160200192915050565b600073ffffffffffffffffffffffffffffffffffffffff808816835280871660208401525060a06040830152612c4160a0830186612b65565b8281036060840152612c538186612b65565b90508281036080840152612c678185612b9f565b98975050505050505050565b600073ffffffffffffffffffffffffffffffffffffffff808816835280871660208401525084604083015283606083015260a06080830152612cb860a0830184612b9f565b979650505050505050565b60208152600061277c6020830184612b65565b604081526000612ce96040830185612b65565b8281036020840152612cfb8185612b65565b95945050505050565b60208152600061277c6020830184612b9f565b600067ffffffffffffffff821115612d3157612d31612e65565b5060051b60200190565b60008219821115612d4e57612d4e612e4f565b500190565b6000817fffffffffffffffffffffffffffffffffffffffffffffffffffffffffffffffff0483118215151615612d8b57612d8b612e4f565b500290565b600181811c90821680612da457607f821691505b60208210811415612dc557634e487b7160e01b600052602260045260246000fd5b50919050565b7fffffffffffffffffffffffffffffffffffffffffffffffffffffffffffffffe0601f830116810181811067ffffffffffffffff82111715612e0f57612e0f612e65565b6040525050565b60007fffffffffffffffffffffffffffffffffffffffffffffffffffffffffffffffff821415612e4857612e48612e4f565b5060010190565b634e487b7160e01b600052601160045260246000fd5b634e487b7160e01b600052604160045260246000fd5b600060033d1115612e9057600481823e5160e01c5b90565b600060443d1015612ea15790565b6040517ffffffffffffffffffffffffffffffffffffffffffffffffffffffffffffffffc803d016004833e81513d67ffffffffffffffff8160248401118184111715612eef57505050505090565b8285019150815181811115612f075750505050505090565b843d8701016020828501011115612f215750505050505090565b612f3060208286010187612dcb565b509095945050505050565b7fffffffff0000000000000000000000000000000000000000000000000000000081168114610bcb57600080fdfea26469706673582212206823b6360049365008598325b9836359f858391d286c2327d51c9f6c33283ff564736f6c63430008040033697066733a2f2f516d5741774c526d6f6f65474e43326452626678453165366e69354b585251394678364359776b3479796b4465352f7b69647d2e6a736f6e697066733a2f2f516d524c717337624d65356f53486a376237376446436d384c6e424148356b427a574d536b425631617256536774",
  "linkReferences": {},
  "deployedLinkReferences": {}
}